:103800000C94341C0C94511C0C94511C0C94511CA1
:103810000C94511C0C94511C0C94511C0C94511C74
:103820000C94511C0C94511C0C94511C0C94511C64
:103830000C94511C0C94511C0C94511C0C94511C54
:103840000C94511C0C94511C0C94511C0C94511C44
:103850000C94511C0C94511C0C94511C0C94511C34
:103860000C94511C0C94511C11241FBECFEFD4E0BA
:10387000DEBFCDBF11E0A0E0B1E0EAEDFEE302C0A3
:1038800005900D92A230B107D9F712E0A2E0B1E0A5
:1038900001C01D92AD30B107E1F70E94251D0C94C7
:1038A0006B1F0C94001C982F959595959595959563
:1038B000905D8F708A301CF0282F295A02C0282F63
:1038C000205D8091C00085FFFCCF9093C600809161
:1038D000C00085FFFCCF2093C6000895982F8091EB
:1038E000C00085FFFCCF9093C6000895EF92FF9231
:1038F0000F931F93EE24FF24870113C00894E11C4B
:10390000F11C011D111D88ECE81686EEF80683E017
:10391000080780E0180728F0E0910401F091050104
:1039200009958091C00087FFE9CF8091C6001F9163
:103930000F91FF90EF9008950E94761C982F809130
:10394000C00085FFFCCF9093C600913614F09755C8
:1039500003C090330CF09053892F08951F930E9459
:103960009C1C182F0E949C1C1295107F810F1F9188
:1039700008951F93182F03C00E94761C1150112325
:10398000D9F71F9108951F93182F0E94761C80323B
:10399000A9F48091C00085FFFCCF84E18093C6002C
:1039A0008091C00085FFFCCF1093C6008091C000BD
:1039B00085FFFCCF80E18093C6000CC0809103019D
:1039C0008F5F80930301853029F4E0910401F09129
:1039D000050109951F9108950E94761C803279F4A3
:1039E0008091C00085FFFCCF84E18093C600809168
:1039F000C00085FFFCCF80E18093C60008958091D0
:103A000003018F5F80930301853029F4E091040165
:103A1000F09105010995089546E650E013C0299AF2
:103A200028EE33E0FA013197F1F721503040D1F719
:103A3000299828EE33E0FA013197F1F72150304010
:103A4000D1F78150882359F708953F924F925F92A2
:103A50006F927F928F929F92AF92BF92CF92DF929E
:103A6000EF92FF920F931F93CF93DF9300008CE0B0
:103A70008093C4001092C50088E18093C10086E065
:103A80008093C2005098589A219A81E00E940C1DA0
:103A900024E1E22E9EE1B92E84E9A82E06E0902EC4
:103AA00010E1F12E88248394B1E47B2EA6E56A2EE2
:103AB000F2E55F2EE0E24E2E79E4372E63E5D62E56
:103AC00050E5C52E0E94761C803309F45FC0813317
:103AD000D1F50E94761C803209F0EFC18091C000C0
:103AE00085FFFCCFE092C6008091C00085FFFCCF2F
:103AF0007092C6008091C00085FFFCCF6092C60026
:103B00008091C00085FFFCCF5092C6008091C0001C
:103B100085FFFCCF4092C6008091C00085FFFCCF9E
:103B20003092C6008091C00085FFFCCFD092C600C5
:103B30008091C00085FFFCCFC092C6008091C0007C
:103B400085FFFCCFB1C1803439F40E94761C8638E1
:103B5000E8F00E94761C1AC0813499F40E94761C09
:103B6000803811F482E0A6C1813811F481E0A2C14D
:103B7000823811F480E19EC1883909F09AC183E04E
:103B800099C1823431F484E10E94B91C0E94EC1C7A
:103B900099CF853411F485E0F7CF8035B9F38235BC
:103BA000A9F3813599F3853549F40E94761C8093F9
:103BB00006010E94761C80930701E8CF8635C9F480
:103BC0000E94761C803389F40E94761C0E94761C29
:103BD000182F0E94761C112311F48EE16BC1113055
:103BE00011F484E967C186E065C183E00E94B91CD5
:103BF00060C1843609F0D2C00E94761C809309020D
:103C00000E94761C8093080280910C028E7F809324
:103C10000C020E94761C853429F480910C0281608C
:103C200080930C0200E010E008C00E94761CF801AE
:103C3000E85FFE4F80830F5F1F4F809108029091D5
:103C400009020817190788F30E94761C803209F0D0
:103C500034C180910C0280FF2BC02091060130916D
:103C60000701220F331F3093070120930601609153
:103C700008027091090240E050E010C0F999FECFAF
:103C8000CA01820F931F92BD81BDFA01E85FFE4F0A
:103C9000808180BDFA9AF99A4F5F5F4F46175707A8
:103CA00068F3260F371F30930701209306016BC07E
:103CB000809107018823880F880B882180930B024D
:103CC0008091060190910701880F991F9093070139
:103CD000809306018091080280FF09C0809108024C
:103CE0009091090201969093090280930802F8943A
:103CF000F999FECF1127E0910601F0910701C8E084
:103D0000D1E08091080290910902103091F4009165
:103D1000570001700130D9F303E000935700E89594
:103D20000091570001700130D9F301E10093570071
:103D3000E895099019900091570001700130D9F36E
:103D400001E000935700E8951395103498F011277F
:103D50000091570001700130D9F305E0009357003E
:103D6000E8950091570001700130D9F301E100930B
:103D70005700E8953296029709F0C7CF103011F03E
:103D80000296E5CF11248091C00085FFFCCFE09220
:103D9000C6008091C00085FFFCCF86C0843709F043
:103DA00061C00E94761C809309020E94761C809359
:103DB00008028091060190910701880F991F909346
:103DC0000701809306010E94761C90910C028534B5
:103DD00011F4916001C09E7F90930C020E94761CAA
:103DE000803209F06FCE8091C00085FFFCCFE09259
:103DF000C600609108027091090280910C02B82FF0
:103E0000B170A82FA2702091060130910701F9012D
:103E100040E050E019C0BB2359F0F999FECFF2BD44
:103E2000E1BDF89A90B58091C00085FFFCCF07C036
:103E3000AA2339F494918091C00085FFFCCF909320
:103E4000C6004F5F5F4F31964617570720F3260F86
:103E5000371F30930701209306018091C00085FF32
:103E6000FCCF22C0853719F50E94761C803229F5D7
:103E70008091C00085FFFCCFE092C6008091C00019
:103E800085FFFCCFB092C6008091C00085FFFCCFBB
:103E9000A092C6008091C00085FFFCCF9092C60022
:103EA0008091C00085FFFCCFF092C6000BCE863714
:103EB00021F480E00E94C31C05CE809103018F5F36
:103EC00080930301853009F0FDCDE0910401F0916C
:0A3ED00005010995F7CDF894FFCF26
:023EDA00800066
:0400000300003800C1
:00000001FF
